S015000046696E616C2056657273696F6E2E737265631F
S11300000C9434000C9451000C9451000C94F90499
S11300100C9451000C94CD040C9451000C94510098
S11300200C9451000C9451000C948C050C94000613
S11300300C94F4050C9468050C94B6040C945100CB
S11300400C9421050C9451000C9451000C94510013
S11300500C9451000C9451000C9451000C945100D8
S11300600C9451000C94510011241FBECFEFD8E022
S1130070DEBFCDBF13E0A0E0B1E0EEECF5E102C0DD
S113008005900D92AC38B107D9F723E0ACE8B3E0A2
S113009001C01D92A63AB207E1F70E948A030C94AC
S11300A0E50A0C940000E0ECF0E0908195FFFDCFB0
S11300B08093C60080E090E00895E0ECF0E0808159
S11300C08823ECF78091C60090E0089588E180933E
S11300D0C10087E690E09093C5008093C400E0EAF5
S11300E0F3E08AE191E0938382838CE091E0918351
S11300F08083089588B1886388B98CE38AB90895A8
S1130100009729F45A988BB188638BB9089581308C
S1130110910529F45B988BB184638BB9089582307F
S1130120910529F45C988BB18C628BB9089503977F
S113013021F45D988BB18C618BB90895339B07C012
S1130140349B08C0359B09C080E090E0089581E0AD
S113015090E0089582E090E0089583E090E00895AF
S1130160CF93DF930E947A000E946600C0E0D0E043
S1130170CE010E9480002FEF89EF90E02150804053
S11301809040E1F700C000000E949E00009759F0E3
S11301909E01220F331FC20FD31FC80FD91FC15096
S11301A0DF4F888104C02196C430D10509F7DF915F
S11301B0CF9108950E94B00090918C03891719F093
S11301C080938C03089580E0089522E024BD24EFF9
S11301D027BDEEE6F0E020812260208325B524606F
S11301E025BD789420918F03309190032817390707
S11301F0C8F31092900310928F0308950F931F93E6
S1130200CF93DF93C0E0D0E006E311E0399A319A4E
S11302102196DF93CF931F930F930E94D70784EF08
S113022090E00E94E5000F900F900F900F90CF3058
S1130230D10561F7DF91CF911F910F9108955698E1
S11302405E9A3A9A4298EDE6F0E080818064808379
S1130250E8E6F0E080818460808378940895539A7E
S113026080E28093B30080E18093B400A0EBB0E01F
S11302708C9180628C93E1EBF0E0808188608083D4
S11302808C9183608C9380818560808324E030E04E
S1130290E3EBF0E08BE79EE580834FEF55EA6EE0F9
S11302A0415050406040E1F700C000001AB84FE7E9
S11302B058E361E0415050406040E1F700C0000065
S11302C0539A80834FEF52E567E0415050406040BD
S11302D0E1F700C000001AB84FE758E361E041506D
S11302E050406040E1F700C00000539A80834FEF14
S11302F052E567E0415050406040E1F700C0000023
S113030090834FEF52E567E0415050406040E1F781
S113031000C0000080834FEF52E567E04150504039
S11303206040E1F700C000001AB84FE758E361E00D
S1130330415050406040E1F700C00000539A215002
S1130340310909F0A9CF5398E0EBF0E080818F7D6B
S113035080830895CF93DF93539AA3EBB0E080E2B8
S11303608C9380E18093B400E0EBF0E080818062C4
S11303708083C1EBD0E0888188608883808183603A
S113038080838881856088839CE79C932FEF30E786
S113039042E0215030404040E1F700C000008FE3CC
S11303A08C932FEF30E742E0215030404040E1F79A
S11303B000C000009C939FEF20E732E09150204062
S11303C03040E1F700C000008C934FEF80E792E0EB
S11303D0415080409040E1F700C000005398808174
S11303E08F7D8083DF91CF91089523982B9AEBE63C
S11303F0F0E0808188608083E8E6F0E080818160BD
S113040080837894089580919903811124C081E0B8
S113041080939903219A5098109285001092840039
S1130420109296031092950384E797E290938B00C1
S113043080938A008CE090E09093890080938800F8
S1130440299A8FEF86BB109280008AE08093810006
S113045082E080936F000895AF92BF92CF92DF92B3
S1130460EF92FF920F931F93CF93DF93CDB7DEB735
S11304706E970FB6F894DEBF0FBECDBF7894CE0151
S113048001966C017C0100E010E00F2EFDE4AF2E1C
S1130490F1E0BF2EF02D0E94030280919903813078
S11304A0E1F380919A0390919B03F70180839183F8
S11304B0F2E0EF0EF11C9F938F931F930F93BF9263
S11304C0AF920E94D7070F5F1F4F0F900F900F90AE
S11304D00F900F900F900F301105E9F6AE01415EB9
S11304E05F4F80E090E0F601219131916F01820F1E
S11304F0931FE417F507B9F76FE070E00E94AF07A8
S1130500CB016E960FB6F894DEBF0FBECDBFDF9160
S1130510CF911F910F91FF90EF90DF90CF90BF90FC
S1130520AF900895019761F4419A0E942C02909330
S11305309803809397030E941F0181E090E008953F
S113054080E090E00895CF93DF9300D000D000D0F6
S1130550CDB7DEB70E947A000E94660000E010E08A
S1130560C12CD12C0F2EF1E66F2EF1E07F2EF02D51
S11305700F2EF8E2EF2EF1E0FF2EF02DA12C0F2E1E
S1130580FFE72F2EF1E03F2EF02D0F2EFCEA4F2E29
S1130590F1E05F2EF02D882483949A2C0E94DA00D7
S11305A0B82E8823D9F320E3821721F006301105F1
S11305B0DCF402C000E010E01F930F931F92BF927F
S11305C07F926F920E94D707E1E0F0E0EC0FFD1FED
S11305D0E00FF11FB0820F5F1F4F0F900F900F902D
S11305E00F900F900F9002C000E010E0F70180819F
S11305F09981981316C081819A81981312C08281BF
S11306009B8198130EC083819C8198130AC08481B6
S11306109D81981306C085819E81981302C00E9413
S1130620A003F3E2BF1210C040980E94FE000E9493
S1130630AA0181E09A2D0E9492026C013F922F92AE
S11306400E94D7070F900F9021E0C216D10409F041
S11306504CC085E991E00E94ED070E94030280915D
S113066099038130E1F3329BF8CF80919A03909102
S11306709B03209197033091980303972817390718
S113068060F080919A0390919B032091970330919D
S11306909803039682179307B8F490928E0380927E
S11306A08D038FEF91E1EAE781509040E040E1F75C
S11306B000C0000042985F924F920E94D7070E94A8
S11306C0E2030F900F90C9CF80EC91E00E94ED07F8
S11306D0FFEF23ED80E3F15020408040E1F700C0BC
S11306E0000042980E94AB0459CF84ED91E00E942F
S11306F0ED0710928E0310928D0350CF87EE91E098
S11307009F938F930E94D707409A4198579A5F9876
S11307100E94A3020E947A000E9466008DEF91E07D
S11307209F938F9389E092E09F938F9382E192E06D
S11307309F938F930E94D7070E94F5010E947E0326
S11307400E947A000E94660082E392E00E94ED0714
S113075088E492E00E94ED070E94DA008A32E1F711
S1130760E2E3F1E013821282118210828AE792E0BE
S11307709F938F930E94D70783E992E00E94ED072D
S11307800F900F90C0E0D0E00E94DA00882329F097
S1130790FE01EE5CFE4F80832196C430D105A1F7A3
S11307A082E391E09F938F9383EA92E09F938F93E8
S11307B00E94D70788EB92E00E94ED070E94AA01ED
S11307C00E947E036F927F928F929F92AF92BF920C
S11307D0CF92DF92EF92FF920F931F93CF93DF9309
S11307E000D000D0CDB7DEB70E947A000E94660028
S11307F084B58D7F84BD81E080936E0016BC109219
S113080094031092930384E085BD78940F2EF3E053
S1130810EF2EF12CF02D612C712C0F2EFEECCF2E2F
S1130820F2E0DF2EF02D0F2EFEE28F2EF1E09F2E50
S1130830F02D0F2EF2E3AF2EF1E0BF2EF02D062D9A
S1130840172D0E94DA00882349F0E1E0F0E0EC0F74
S1130850FD1FE00FF11F80830F5F1F4F80919303F3
S113086090919403893B9C4108F058C004301105D1
S113087041F71D8281E090E08C0F9D1F9F938F9321
S1130880DF92CF920E94D7078981F40190810F9063
S11308900F900F900F90891314C091812A8129130E
S11308A010C092812B8129130CC093812C812913B0
S11308B008C082EE92E00E94ED07229A2A9A0E94D2
S11308C07E03F5019081891314C081819A81981364
S11308D010C082819B8198130CC083819C819813E2
S11308E008C087EF92E09F938F930E94D7070E94DE
S11308F07E03F1E0EF1AF10809F0A1CF83E093E061
S11309009F938F930E94D707EEE6F0E080818E7F5D
S113091080830E94AB040F900F900AC08CE193E097
S11309209F938F930E94D7070E94AB040F900F9060
S11309300F900F900F900F90DF91CF911F910F9117
S1130940FF90EF90DF90CF90BF90AF909F908F90EB
S11309507F906F900895579A5F9A85E393E00E9481
S1130960ED070E942F010E94E20308951F920F9247
S11309700FB60F9211248F939F9380918F039091C0
S1130980900301969093900380938F039F918F918E
S11309900F900FBE0F901F9018951F920F920FB6D5
S11309A00F9211242F933F934F935F936F937F93F1
S11309B08F939F93AF93BF93EF93FF9381E593E05E
S11309C00E94ED07429AE8E6F0E080818B7F808305
S11309D0FF91EF91BF91AF919F918F917F916F9113
S11309E05F914F913F912F910F900FBE0F901F90E9
S11309F018951F920F920FB60F9211242F933F93C5
S1130A004F935F936F937F938F939F93AF93BF9312
S1130A10EF93FF938BE593E00E94ED070E94AB04F4
S1130A20FF91EF91BF91AF919F918F917F916F91C2
S1130A305F914F913F912F910F900FBE0F901F9098
S1130A4018951F920F920FB60F9211242F933F9374
S1130A504F935F936F937F938F939F93AF93BF93C2
S1130A60EF93FF9380918D0390918E030197F9F496
S1130A7080919303909194030196909394038093AF
S1130A8093038091930390919403893B9C4178F064
S1130A90109294031092930385E793E00E94ED076C
S1130AA0EEE6F0E080818E7F80830E94AB04FF91AC
S1130AB0EF91BF91AF919F918F917F916F915F91D2
S1130AC04F913F912F910F900FBE0F901F9018954B
S1130AD01F920F920FB60F9211248F939F938091C0
S1130AE0950390919603029738F010926F0010923C
S1130AF081008FEF809399038091950390919603E1
S1130B00019690939603809395039F918F910F90F4
S1130B100FBE0F901F9018951F920F920FB60F9251
S1130B2011242F933F934F935F936F937F938F93EE
S1130B309F93AF93BF93CF93DF93EF93FF938091F2
S1130B40810086FF09C0E1E8F0E080818260808353
S1130B5080818F7B808335C0C4E8D0E0888199810F
S1130B6090939B0380939A0360919A0370919B03E3
S1130B7080E090E00E94B4062DEB37E346E055E3B5
S1130B800E94420720E034E244E759E40E9442070D
S1130B9020E030E048E652E40E9413060E948506F5
S1130BA070939B0360939A038091950390919603AD
S1130BB090939D0380939C0384E080936F0019823B
S1130BC01882FF91EF91DF91CF91BF91AF919F91E7
S1130BD08F917F916F915F914F913F912F910F90E2
S1130BE00FBE0F901F9018951F920F920FB60F9281
S1130BF01124109299030F900FBE0F901F90189517
S1130C001F920F920FB60F9211248F93299881E2AD
S1130C1080936F0080E4809381008F910F900FBECA
S1130C200F901F9018950E9427060C9408070E94A5
S1130C30010758F00E94FA0640F029F45F3F29F0BA
S1130C400C94F10651110C943C070C94F7060E9485
S1130C50190768F39923B1F3552391F3951B550BA9
S1130C60BB27AA2762177307840738F09F5F5F4F7B
S1130C70220F331F441FAA1FA9F335D00E2E3AF0BA
S1130C80E0E832D091505040E695001CCAF72BD0D2
S1130C90FE2F29D0660F771F881FBB1F2617370723
S1130CA04807AB07B0E809F0BB0B802DBF01FF2755
S1130CB093585F4F3AF09E3F510578F00C94F1063B
S1130CC00C943C075F3FE4F3983ED4F38695779504
S1130CD06795B795F7959F5FC9F7880F911D96950E
S1130CE0879597F90895E1E0660F771F881FBB1F6A
S1130CF0621773078407BA0720F0621B730B840B17
S1130D00BA0BEE1F88F7E09508950E94210788F03A
S1130D109F5798F0B92F9927B751B0F0E1F0660FBB
S1130D20771F881F991F1AF0BA95C9F714C0B130FC
S1130D3091F00E943B07B1E008950C943B07672FA4
S1130D40782F8827B85F39F0B93FCCF3869577952B
S1130D506795B395D9F73EF4909580957095619514
S1130D607F4F8F4F9F4F0895E89409C097FB3EF43F
S1130D7090958095709561957F4F8F4F9F4F9923E4
S1130D80A9F0F92F96E9BB279395F6958795779562
S1130D906795B795F111F8CFFAF4BB0F11F460FF22
S1130DA01BC06F5F7F4F8F4F9F4F16C0882311F07A
S1130DB096E911C0772321F09EE8872F762F05C08E
S1130DC0662371F096E8862F70E060E02AF09A9529
S1130DD0660F771F881FDAF7880F9695879597F91E
S1130DE0089597F99F6780E870E060E008959FEFA9
S1130DF080EC089500240A941616170618060906AE
S1130E00089500240A94121613061406050608957C
S1130E10092E0394000C11F4882352F0BB0F40F404
S1130E20BF2B11F460FF04C06F5F7F4F8F4F9F4F44
S1130E30089557FD9058440F551F59F05F3F71F0C6
S1130E404795880F97FB991F61F09F3F79F087952D
S1130E500895121613061406551FF2CF4695F1DFB6
S1130E6008C0161617061806991FF1CF8695710546
S1130E70610508940895E894BB2766277727CB017A
S1130E8097F908950E9455070C9408070E94FA06E2
S1130E9038F00E94010720F0952311F00C94F1061C
S1130EA00C94F70611240C943C070E94190770F364
S1130EB0959FC1F3950F50E0551F629FF001729FFB
S1130EC0BB27F00DB11D639FAA27F00DB11DAA1F0A
S1130ED0649F6627B00DA11D661F829F2227B00D57
S1130EE0A11D621F739FB00DA11D621F839FA00DE2
S1130EF0611D221F749F3327A00D611D231F849F32
S1130F00600D211D822F762F6A2F11249F57504088
S1130F109AF0F1F088234AF0EE0FFF1FBB1F661F03
S1130F20771F881F91505040A9F79E3F510580F0CC
S1130F300C94F1060C943C075F3FE4F3983ED4F321
S1130F40869577956795B795F795E7959F5FC1F770
S1130F50FE2B880F911D9695879597F9089597FB19
S1130F60072E16F4009407D077FD09D00E94C3071A
S1130F7007FC05D03EF4909581959F4F0895709598
S1130F8061957F4F0895AA1BBB1B51E107C0AA1F9F
S1130F90BB1FA617B70710F0A61BB70B881F991F16
S1130FA05A95A9F780959095BC01CD010895A0E0CC
S1130FB0B0E0EDEDF7E00C94BE0AAE014B5F5F4F7D
S1130FC0FA0161917191AF018091A2039091A30301
S1130FD00E941D08E2E00C94DA0A0F931F93CF934A
S1130FE0DF93E091A203F091A303238121FF1BC0AF
S1130FF08C01D0E0C0E0F80181918F016091A203DF
S11310007091A303DB011896ED91FC911997882345
S113101031F00995892B79F3DFEFCFEFECCF8AE03C
S11310200995892B19F08FEF9FEF02C08D2F9C2F0C
S1131030DF91CF911F910F910895ABE0B0E0E3E20F
S1131040F8E00C94AE0A6C017B018A01FC01178262
S11310501682838181FFCCC1CE0101963C01F60149
S11310609381F70193FD859193FF81917F018823FB
S113107009F4BAC1853239F493FD859193FF8191C6
S11310807F01853229F4B60190E00E94140AE7CF6B
S1131090912C212C312CFFE1F315D8F08B3279F00F
S11310A038F4803279F08332A1F4232D20611DC0FD
S11310B08D3261F0803369F4232D216016C0832DB5
S11310C08260382EE32DE4603E2E2AC0F32DF860B2
S11310D01DC037FC2DC020ED280F2A3040F08E3281
S11310E0B9F436FC81C1232D2064322E19C036FE9A
S11310F006C08AE0989E200D1124922E11C0EAE0C9
S11311002E9E200D1124222EF32DF0623F2E08C0B6
S11311108C3621F4832D8068382E02C0883641F441
S1131120F70193FD859193FF81917F018111B3CFE5
S1131130982F9F7D9554933028F40C5F1F4F9FE3A5
S113114099830DC0833631F0833771F0833509F00C
S113115059C021C0F801808189830E5F1F4F882404
S11311608394912C530113C02801F2E04F0E511CBB
S1131170F801A080B18036FE03C0692D70E002C082
S11311806FEF7FEFC5010E94090A4C018201F32D24
S1131190FF773F2E16C0280122E0420E511CF801B1
S11311A0A080B18036FE03C0692D70E002C06FEFED
S11311B07FEFC5010E94FE094C01F32DF0683F2E1C
S11311C0820133FC1BC0822D90E088169906B0F48E
S11311D0B60180E290E00E94140A2A94F4CFF5014B
S11311E037FC859137FE81915F01B60190E00E9442
S11311F0140A21102A9421E0821A9108811491047E
S113120071F7E8C0843611F0893641F5F80137FEEC
S113121007C060817181828193810C5F1F4F08C078
S113122060817181072E000C880B990B0E5F1F4F94
S1131230F32DFF763F2E97FF09C09095809570950A
S113124061957F4F8F4F9F4FF0683F2E2AE030E02B
S1131250A3010E94500A882E861845C0853731F4B0
S1131260232D2F7EB22E2AE030E025C0932D997FC6
S1131270B92E8F36C1F018F4883579F0B5C08037AF
S113128019F0883721F0B0C0E92FE061BE2EB4FE1A
S11312900DC0FB2DF460BF2E09C034FE0AC0292FF7
S11312A02660B22E06C028E030E005C020E130E020
S11312B002C020E132E0F801B7FE07C0608171810D
S11312C0828193810C5F1F4F06C06081718180E031
S11312D090E00E5F1F4FA3010E94500A882E8618CB
S11312E0FB2DFF773F2E36FE0DC0232D2E7FA22E21
S11312F0891458F434FE0BC032FC09C0832D8E7E51
S1131300A82E05C0B82CA32C03C0B82C01C0B92C3E
S1131310A4FE0FC0FE01E80DF11D8081803321F48D
S11313209A2D997EA92E09C0A2FE06C0B394B39447
S113133004C08A2D867809F0B394A3FC11C0A0FEE2
S113134006C0B21488F4280C922C9B180EC0B21458
S113135060F4B60180E290E00E94140AB394F7CFDF
S1131360B21418F42B1802C0982C212CA4FE10C01F
S1131370B60180E390E00E94140AA2FE17C0A1FC0B
S113138003C088E790E002C088E590E0B6010CC095
S11313908A2D867859F0A1FE02C08BE201C080E25A
S11313A0A7FC8DE2B60190E00E94140A891438F477
S11313B0B60180E390E00E94140A9A94F7CF8A94CD
S11313C0F301E80DF11D8081B60190E00E94140A3A
S11313D08110F5CF222009F442CEB60180E290E0DC
S11313E00E94140A2A94F6CFF6018681978102C0DE
S11313F08FEF9FEF2B96E2E10C94CA0AFC01059053
S1131400615070400110D8F7809590958E0F9F1F02
S11314100895FC016150704001900110D8F7809547
S113142090958E0F9F1F08950F931F93CF93DF9373
S1131430FB01238121FD03C08FEF9FEF2CC022FF0E
S113144016C046815781248135814217530744F4DD
S1131450A081B1819D012F5F3F4F318320838C9305
S1131460268137812F5F3F4F3783268314C08B013A
S1131470EC01FB010084F185E02D0995892BE1F64F
S1131480D80116968D919C911797019617969C9367
S11314908E931697CE01DF91CF911F910F910895EE
S11314A0FA01AA27283051F1203181F1E8946F9391
S11314B06E7F6E5F7F4F8F4F9F4FAF4FB1E03ED037
S11314C0B4E03CD0670F781F891F9A1FA11D680FD5
S11314D0791F8A1F911DA11D6A0F711D811D911D08
S11314E0A11D20D009F468943F912AE0269F11247D
S11314F03019305D3193DEF6CF010895462F4770E1
S1131500405D4193B3E00FD0C9F7F6CF462F4F703B
S1131510405D4A3318F0495D31FD4052419302D099
S1131520A9F7EACFB4E0A69597958795779567953F
S1131530BA95C9F700976105710508959B01AC013F
S11315400A2E06945795479537952795BA95C9F766
S1131550620F731F841F951FA01D08952F923F9241
S11315604F925F926F927F928F929F92AF92BF92AF
S1131570CF92DF92EF92FF920F931F93CF93DF935B
S1131580CDB7DEB7CA1BDB0B0FB6F894DEBF0FBEB8
S1131590CDBF09942A88398848885F846E847D8405
S11315A08C849B84AA84B984C884DF80EE80FD8007
S11315B00C811B81AA81B981CE0FD11D0FB6F8947D
S11115C0DEBF0FBECDBFED010895F894FFCF3E
S11315CE3132333435363738392A302300000001AE
S11315DE0000000000005D0000000000000200009A
S11315EE00005300000000003036343937393434EB
S11315FE3730333935320A2564207365636F6E6470
S113160E732068617320706173736564000A2045EA
S113161E63686F3B202564202D202564636D0A0AC0
S113162E0061646465642025632069732025642049
S113163E696E20746865206172726179200A000AED
S113164E0D53797374656D2069732041726D6564F1
S113165E200A200D0057616974696E6720666F72E7
S113166E20646574656374696F6E200052657175CC
S113167E657374696E672050696E3A200A200D00F6
S113168E556E617574686F72697A656420656E74DF
S113169E7279200053797374656D20697320756EA9
S11316AE61726D6564200053797374656D2069737E
S11316BE2044697361726D6564200A0D0041707275
S11316CE20203520323032300032323A34353A333B
S11316DE340053797374656D20426F6F7465642C96
S11316EE206275696C74202573206F6E202573201B
S11316FE0A0041646D696E20436F6465206C6175E8
S113170E6E63686564200A00456E74657220272A2C
S113171E2720746F2064656C657465206120706980
S113172E6E20616E64207468656E2061646420614D
S113173E206E6577206F6E65200050696E2068619B
S113174E73206265656E2064656C65746564200A39
S113175E200D00456E746572206E65772070696E7B
S113176E200A00456E74657265642050494E3A2015
S113177E2573200A20200D005265737461727469FA
S113178E6E672053797374656D200A202000456EB0
S113179E74657265642050494E3A202573200A20E0
S11317AE0D0053494C454E5420414C41524D20524C
S11317BE41495345442000636F7272656374200A75
S11317CE200D00417474656D7074206C696D6974BC
S11317DE2072656163686564200A0D0054696D6545
S11317EE206C696D6974206861732072756E207542
S11317FE70200A0D0054484520414C41524D20485A
S113180E4153204245454E20534554204F464620D1
S113181E004465746563746564200044657465638F
S113182E746564204D61676E657420686173204D24
S113183E6F7665640054696D65206C696D697420FA
S10F184E6861732072756E2075702000B4
S9030000FC
